{
  "contractName": "AnalysisController",
  "abi": [
    {
      "constant": true,
      "inputs": [],
      "name": "owner",
      "outputs": [
        {
          "name": "",
          "type": "address"
        }
      ],
      "payable": false,
      "stateMutability": "view",
      "type": "function"
    },
    {
      "inputs": [
        {
          "name": "datastore",
          "type": "address"
        },
        {
          "name": "lockstroe",
          "type": "address"
        }
      ],
      "payable": false,
      "stateMutability": "nonpayable",
      "type": "constructor"
    },
    {
      "constant": false,
      "inputs": [],
      "name": "getURL",
      "outputs": [
        {
          "name": "_id",
          "type": "uint256"
        },
        {
          "name": "_url",
          "type": "bytes"
        }
      ],
      "payable": false,
      "stateMutability": "nonpayable",
      "type": "function"
    },
    {
      "constant": false,
      "inputs": [
        {
          "name": "_id",
          "type": "uint256"
        }
      ],
      "name": "lockUrl",
      "outputs": [
        {
          "name": "res",
          "type": "bool"
        }
      ],
      "payable": false,
      "stateMutability": "nonpayable",
      "type": "function"
    },
    {
      "constant": false,
      "inputs": [
        {
          "name": "_id",
          "type": "uint256"
        },
        {
          "name": "_url",
          "type": "bytes"
        },
        {
          "name": "_cates",
          "type": "bytes"
        }
      ],
      "name": "fillCates",
      "outputs": [
        {
          "name": "res",
          "type": "bool"
        }
      ],
      "payable": false,
      "stateMutability": "nonpayable",
      "type": "function"
    }
  ],
  "bytecode": "0x608060405234801561001057600080fd5b50604051604080611e478339810180604052810190808051906020019092919080519060200190929190505050336000806101000a81548173ffffffffffffffffffffffffffffffffffffffff021916908373ffffffffffffffffffffffffffffffffffffffff16021790555081600160006101000a81548173ffffffffffffffffffffffffffffffffffffffff021916908373ffffffffffffffffffffffffffffffffffffffff16021790555080600260006101000a81548173ffffffffffffffffffffffffffffffffffffffff021916908373ffffffffffffffffffffffffffffffffffffffff1602179055505050611d37806101106000396000f300608060405260043610610062576000357c0100000000000000000000000000000000000000000000000000000000900463ffffffff16806330a9a74d1461006757806338bcdc1c146100ac5780636c88bf26146101435780638da5cb5b14610214575b600080fd5b34801561007357600080fd5b506100926004803603810190808035906020019092919050505061026b565b604051808215151515815260200191505060405180910390f35b3480156100b857600080fd5b506100c161089c565b6040518083815260200180602001828103825283818151815260200191508051906020019080838360005b838110156101075780820151818401526020810190506100ec565b50505050905090810190601f1680156101345780820380516001836020036101000a031916815260200191505b50935050505060405180910390f35b34801561014f57600080fd5b506101fa60048036038101908080359060200190929190803590602001908201803590602001908080601f0160208091040260200160405190810160405280939291908181526020018383808284378201915050505050509192919290803590602001908201803590602001908080601f0160208091040260200160405190810160405280939291908181526020018383808284378201915050505050509192919290505050610fce565b604051808215151515815260200191505060405180910390f35b34801561022057600080fd5b506102296116f7565b604051808273ffffffffffffffffffffffffffffffffffffffff1673ffffffffffffffffffffffffffffffffffffffff16815260200191505060405180910390f35b6000606060008060008511151561028157600080fd5b600260009054906101000a900473ffffffffffffffffffffffffffffffffffffffff1673ffffffffffffffffffffffffffffffffffffffff16635dbe47e8336040518263ffffffff167c0100000000000000000000000000000000000000000000000000000000028152600401808273ffffffffffffffffffffffffffffffffffffffff1673ffffffffffffffffffffffffffffffffffffffff168152602001915050602060405180830381600087803b15801561033e57600080fd5b505af1158015610352573d6000803e3d6000fd5b505050506040513d602081101561036857600080fd5b8101908080519060200190929190505050156103875760009350610894565b6000600160009054906101000a900473ffffffffffffffffffffffffffffffffffffffff1673ffffffffffffffffffffffffffffffffffffffff16635e9a62c3876040518263ffffffff167c010000000000000000000000000000000000000000000000000000000002815260040180828152602001915050602060405180830381600087803b15801561041a57600080fd5b505af115801561042e573d6000803e3d6000fd5b505050506040513d602081101561044457600080fd5b810190808051906020019092919050505060ff1611156104675760009350610894565b600160009054906101000a900473ffffffffffffffffffffffffffffffffffffffff1673ffffffffffffffffffffffffffffffffffffffff1663a4a4d28d866040518263ffffffff167c010000000000000000000000000000000000000000000000000000000002815260040180828152602001915050600060405180830381600087803b1580156104f857600080fd5b505af115801561050c573d6000803e3d6000fd5b505050506040513d6000823e3d601f19601f82011682018060405250606081101561053657600080fd5b81019080805164010000000081111561054e57600080fd5b8281019050602081018481111561056457600080fd5b815185600182028301116401000000008211171561058157600080fd5b5050929190602001805190602001909291908051906020019092919050505080935081945082955050505080600160009054906101000a900473ffffffffffffffffffffffffffffffffffffffff1673ffffffffffffffffffffffffffffffffffffffff166370a08231846040518263ffffffff167c0100000000000000000000000000000000000000000000000000000000028152600401808273ffffffffffffffffffffffffffffffffffffffff1673ffffffffffffffffffffffffffffffffffffffff168152602001915050602060405180830381600087803b15801561066a57600080fd5b505af115801561067e573d6000803e3d6000fd5b505050506040513d602081101561069457600080fd5b81019080805190602001909291905050501015156106b55760009350610894565b600160009054906101000a900473ffffffffffffffffffffffffffffffffffffffff1673ffffffffffffffffffffffffffffffffffffffff16636f7a74196001876040518363ffffffff167c0100000000000000000000000000000000000000000000000000000000028152600401808360ff16815260200182815260200192505050602060405180830381600087803b15801561075257600080fd5b505af1158015610766573d6000803e3d6000fd5b505050506040513d602081101561077c57600080fd5b810190808051906020019092919050505050600260009054906101000a900473ffffffffffffffffffffffffffffffffffffffff1673ffffffffffffffffffffffffffffffffffffffff16637f8d53c633876040518363ffffffff167c0100000000000000000000000000000000000000000000000000000000028152600401808373ffffffffffffffffffffffffffffffffffffffff1673ffffffffffffffffffffffffffffffffffffffff16815260200182815260200192505050602060405180830381600087803b15801561085357600080fd5b505af1158015610867573d6000803e3d6000fd5b505050506040513d602081101561087d57600080fd5b810190808051906020019092919050505050600193505b505050919050565b6000606060008060006060600080600260009054906101000a900473ffffffffffffffffffffffffffffffffffffffff1673ffffffffffffffffffffffffffffffffffffffff16635dbe47e8336040518263ffffffff167c0100000000000000000000000000000000000000000000000000000000028152600401808273ffffffffffffffffffffffffffffffffffffffff1673ffffffffffffffffffffffffffffffffffffffff168152602001915050602060405180830381600087803b15801561096757600080fd5b505af115801561097b573d6000803e3d6000fd5b505050506040513d602081101561099157600080fd5b8101908080519060200190929190505050156109c6576000809050602060405190810160405280600081525097509750610fc4565b600260009054906101000a900473ffffffffffffffffffffffffffffffffffffffff1673ffffffffffffffffffffffffffffffffffffffff1663be9a65556040518163ffffffff167c0100000000000000000000000000000000000000000000000000000000028152600401602060405180830381600087803b158015610a4c57600080fd5b505af1158015610a60573d6000803e3d6000fd5b505050506040513d6020811015610a7657600080fd5b810190808051906020019092919050505095505b600086101515610fb557600260009054906101000a900473ffffffffffffffffffffffffffffffffffffffff1673ffffffffffffffffffffffffffffffffffffffff16639507d39a876040518263ffffffff167c010000000000000000000000000000000000000000000000000000000002815260040180828152602001915050606060405180830381600087803b158015610b2557600080fd5b505af1158015610b39573d6000803e3d6000fd5b505050506040513d6060811015610b4f57600080fd5b81019080805190602001909291908051906020019092919080519060200190929190505050809650819a50829750505050600088118015610b93575061012c840142115b15610ee257600160009054906101000a900473ffffffffffffffffffffffffffffffffffffffff1673ffffffffffffffffffffffffffffffffffffffff1663a4a4d28d896040518263ffffffff167c010000000000000000000000000000000000000000000000000000000002815260040180828152602001915050600060405180830381600087803b158015610c2957600080fd5b505af1158015610c3d573d6000803e3d6000fd5b505050506040513d6000823e3d601f19601f820116820180604052506060811015610c6757600080fd5b810190808051640100000000811115610c7f57600080fd5b82810190506020810184811115610c9557600080fd5b8151856001820283011164010000000082111715610cb257600080fd5b5050929190602001805190602001909291908051906020019092919050505080935081945082955050505080600160009054906101000a900473ffffffffffffffffffffffffffffffffffffffff1673ffffffffffffffffffffffffffffffffffffffff166370a08231846040518263ffffffff167c0100000000000000000000000000000000000000000000000000000000028152600401808273ffffffffffffffffffffffffffffffffffffffff1673ffffffffffffffffffffffffffffffffffffffff168152602001915050602060405180830381600087803b158015610d9b57600080fd5b505af1158015610daf573d6000803e3d6000fd5b505050506040513d6020811015610dc557600080fd5b8101908080519060200190929190505050101515610ee157600260009054906101000a900473ffffffffffffffffffffffffffffffffffffffff1673ffffffffffffffffffffffffffffffffffffffff1663a4ad69ee866040518263ffffffff167c0100000000000000000000000000000000000000000000000000000000028152600401808273ffffffffffffffffffffffffffffffffffffffff1673ffffffffffffffffffffffffffffffffffffffff168152602001915050602060405180830381600087803b158015610e9a57600080fd5b505af1158015610eae573d6000803e3d6000fd5b505050506040513d6020811015610ec457600080fd5b810190808051906020019092919050505050878397509750610fc4565b5b600260009054906101000a900473ffffffffffffffffffffffffffffffffffffffff1673ffffffffffffffffffffffffffffffffffffffff1663edd004e5876040518263ffffffff167c010000000000000000000000000000000000000000000000000000000002815260040180828152602001915050602060405180830381600087803b158015610f7357600080fd5b505af1158015610f87573d6000803e3d6000fd5b505050506040513d6020811015610f9d57600080fd5b81019080805190602001909291905050509550610a8a565b610fbf600061171c565b975097505b5050505050509091565b60006060600080600087118015610fe6575060008551115b1515610ff157600080fd5b86600260009054906101000a900473ffffffffffffffffffffffffffffffffffffffff1673ffffffffffffffffffffffffffffffffffffffff166399f826a5336040518263ffffffff167c0100000000000000000000000000000000000000000000000000000000028152600401808273ffffffffffffffffffffffffffffffffffffffff1673ffffffffffffffffffffffffffffffffffffffff168152602001915050602060405180830381600087803b1580156110af57600080fd5b505af11580156110c3573d6000803e3d6000fd5b505050506040513d60208110156110d957600080fd5b81019080805190602001909291905050501415156110fa57600093506116ed565b600160009054906101000a900473ffffffffffffffffffffffffffffffffffffffff1673ffffffffffffffffffffffffffffffffffffffff1663a4a4d28d886040518263ffffffff167c010000000000000000000000000000000000000000000000000000000002815260040180828152602001915050600060405180830381600087803b15801561118b57600080fd5b505af115801561119f573d6000803e3d6000fd5b505050506040513d6000823e3d601f19601f8201168201806040525060608110156111c957600080fd5b8101908080516401000000008111156111e157600080fd5b828101905060208101848111156111f757600080fd5b815185600182028301116401000000008211171561121457600080fd5b505092919060200180519060200190929190805190602001909291905050508093508194508295505050508573__StringLib_____________________________637da483179091856040518363ffffffff167c0100000000000000000000000000000000000000000000000000000000028152600401808060200180602001838103835285818151815260200191508051906020019080838360005b838110156112cc5780820151818401526020810190506112b1565b50505050905090810190601f1680156112f95780820380516001836020036101000a031916815260200191505b50838103825284818151815260200191508051906020019080838360005b83811015611332578082015181840152602081019050611317565b50505050905090810190601f16801561135f5780820380516001836020036101000a031916815260200191505b5094505050505060206040518083038186803b15801561137e57600080fd5b505af4158015611392573d6000803e3d6000fd5b505050506040513d60208110156113a857600080fd5b8101908080519060200190929190505050156116e857600160009054906101000a900473ffffffffffffffffffffffffffffffffffffffff1673ffffffffffffffffffffffffffffffffffffffff1663737e83938887336040518463ffffffff167c010000000000000000000000000000000000000000000000000000000002815260040180848152602001806020018373ffffffffffffffffffffffffffffffffffffffff1673ffffffffffffffffffffffffffffffffffffffff168152602001828103825284818151815260200191508051906020019080838360005b838110156114a2578082015181840152602081019050611487565b50505050905090810190601f1680156114cf5780820380516001836020036101000a031916815260200191505b50945050505050602060405180830381600087803b1580156114f057600080fd5b505af1158015611504573d6000803e3d6000fd5b505050506040513d602081101561151a57600080fd5b81019080805190602001909291905050505060018060009054906101000a900473ffffffffffffffffffffffffffffffffffffffff1673ffffffffffffffffffffffffffffffffffffffff16635e9a62c3896040518263ffffffff167c010000000000000000000000000000000000000000000000000000000002815260040180828152602001915050602060405180830381600087803b1580156115be57600080fd5b505af11580156115d2573d6000803e3d6000fd5b505050506040513d60208110156115e857600080fd5b810190808051906020019092919050505060ff1614156116dc57600160009054906101000a900473ffffffffffffffffffffffffffffffffffffffff1673ffffffffffffffffffffffffffffffffffffffff16636f7a74196002896040518363ffffffff167c0100000000000000000000000000000000000000000000000000000000028152600401808360ff16815260200182815260200192505050602060405180830381600087803b15801561169f57600080fd5b505af11580156116b3573d6000803e3d6000fd5b505050506040513d60208110156116c957600080fd5b8101908080519060200190929190505050505b6116e7823383611b04565b5b600193505b5050509392505050565b6000809054906101000a900473ffffffffffffffffffffffffffffffffffffffff1681565b600060608060606000806000806000600160009054906101000a900473ffffffffffffffffffffffffffffffffffffffff1673ffffffffffffffffffffffffffffffffffffffff16637b8bcbda8b6040518263ffffffff167c0100000000000000000000000000000000000000000000000000000000028152600401808260ff1660ff168152602001915050600060405180830381600087803b1580156117c257600080fd5b505af11580156117d6573d6000803e3d6000fd5b505050506040513d6000823e3d601f19601f82011682018060405250602081101561180057600080fd5b81019080805164010000000081111561181857600080fd5b8281019050602081018481111561182e57600080fd5b815185602082028301116401000000008211171561184b57600080fd5b5050929190505050965086519250600091505b82821015611add57868281518110151561187457fe5b906020019060200201519050600160009054906101000a900473ffffffffffffffffffffffffffffffffffffffff1673ffffffffffffffffffffffffffffffffffffffff1663a4a4d28d826040518263ffffffff167c010000000000000000000000000000000000000000000000000000000002815260040180828152602001915050600060405180830381600087803b15801561191157600080fd5b505af1158015611925573d6000803e3d6000fd5b505050506040513d6000823e3d601f19601f82011682018060405250606081101561194f57600080fd5b81019080805164010000000081111561196757600080fd5b8281019050602081018481111561197d57600080fd5b815185600182028301116401000000008211171561199a57600080fd5b5050929190602001805190602001909291908051906020019092919050505080965081975082985050505083600160009054906101000a900473ffffffffffffffffffffffffffffffffffffffff1673ffffffffffffffffffffffffffffffffffffffff166370a08231876040518263ffffffff167c0100000000000000000000000000000000000000000000000000000000028152600401808273ffffffffffffffffffffffffffffffffffffffff1673ffffffffffffffffffffffffffffffffffffffff168152602001915050602060405180830381600087803b158015611a8357600080fd5b505af1158015611a97573d6000803e3d6000fd5b505050506040513d6020811015611aad57600080fd5b8101908080519060200190929190505050101515611ad057808698509850611af8565b818060010192505061185e565b60008090506020604051908101604052806000815250985098505b50505050505050915091565b600160009054906101000a900473ffffffffffffffffffffffffffffffffffffffff1673ffffffffffffffffffffffffffffffffffffffff16637ff7017784836040518363ffffffff167c0100000000000000000000000000000000000000000000000000000000028152600401808373ffffffffffffffffffffffffffffffffffffffff1673ffffffffffffffffffffffffffffffffffffffff16815260200182815260200192505050602060405180830381600087803b158015611bc957600080fd5b505af1158015611bdd573d6000803e3d6000fd5b505050506040513d6020811015611bf357600080fd5b810190808051906020019092919050505050600160009054906101000a900473ffffffffffffffffffffffffffffffffffffffff1673ffffffffffffffffffffffffffffffffffffffff1663f1af92b683836040518363ffffffff167c0100000000000000000000000000000000000000000000000000000000028152600401808373ffffffffffffffffffffffffffffffffffffffff1673ffffffffffffffffffffffffffffffffffffffff16815260200182815260200192505050602060405180830381600087803b158015611cca57600080fd5b505af1158015611cde573d6000803e3d6000fd5b505050506040513d6020811015611cf457600080fd5b8101908080519060200190929190505050505050505600a165627a7a72305820a6cae054b1e453a8204bdc9afabc91610a12a2bb44ec7920c27c79b725a7c8c60029",
  "source": "pragma solidity ^0.4.23;\n\n\nimport \"carbon-ico/contracts/Ownable.sol\";\n\nimport \"./Datastore.sol\";\nimport \"./Lockstore.sol\";\n\n\n\n/**\n * The AnalysisController contract does this and that...\n */\ncontract AnalysisController is Ownable {\n\n\tusing StringLib for bytes;\n\n\tDatastore ds;\n\tLockstore ls;\n\n\tuint constant fiveMin = 5 * 60;\n\n\tconstructor(address datastore, address lockstroe) public {\n\t\tds = Datastore(datastore);\n\t\tls = Lockstore(lockstroe);\n\t}\n\n\t/*\n\t * 获取url中的一个，首先从超时未处理的部分获取;\n\t */\n\tfunction getURL() public returns(uint _id, bytes _url) {\n\t\tif (ls.contains(msg.sender)){\n\t\t\treturn (0, \"\");\n\t\t}\n\n\t\tuint index = ls.start();\n\t\taddress key;\n\t\tuint timestamp;\n\n\t\tbytes memory url;\n\t\taddress sender;\n\t\tuint price;\n\n\t\twhile (index >= 0){\n\t\t\t(key, _id, timestamp) = ls.get(index);\n\t\t\tif ( _id > 0 && now > timestamp + fiveMin){\n\t\t\t\t(url, sender, price) = ds.getURLByID(_id);\n\n\t\t\t\tif (ds.balanceOf(sender) >= price){\n\t\t\t\t\tls.deleteIt(key);\n\t\t\t\t\treturn (_id, url);\n\t\t\t\t}\t\t\t\t\n\t\t\t}\n\n\t\t\tindex = ls.next(index);\n\t\t}\n\n\t\treturn getURLByStatus(0);\n\t}\n\t\n\n\t/*\n\t * 根据状态获取url和其对应的额id，目前只获取当前状态的第一条\n\t */\n\tfunction getURLByStatus(uint8 _status) internal view returns(uint _id, bytes _url) {\n\n\t\tuint[] memory ns = ds.getIndexByStatus(_status);\n\n\t\tbytes memory url;\n\t\taddress sender;\n\t\tuint price;\n\n\t\tuint length = ns.length;\n\t\tfor( uint i = 0; i < length; i++){\n\t\t\tuint uid = ns[i];\n\t\t\t(url, sender, price) = ds.getURLByID(uid);\n\t\t\tif (ds.balanceOf(sender) >= price){\n\t\t\t\treturn (uid, url);\n\t\t\t}\n\t\t}\n\n\t\treturn (0, \"\");\n\t}\n\t\n\t/*\n\t * 将url的状态从未分析，更新为正在分析的状态，更新成功的话，此用户才分析的结果才会有奖励\n\t */\n\tfunction lockUrl(uint _id) public returns(bool res) {\t\t\n\t\trequire (_id > 0);\n\n\t\tif (ls.contains(msg.sender)){\n\t\t\treturn false;\n\t\t}\t\t\n\t\t\n\t\tif(ds.getStatusByID(_id) > 0){\n\t\t\treturn false;\n\t\t}\n\n\t\tbytes memory url;\n\t\taddress sender;\n\t\tuint price;\n\n\t\t(url, sender, price) = ds.getURLByID(_id);\n\t\tif (ds.balanceOf(sender) >= price){\n\t\t\treturn false;\n\t\t}\n\n\t\tds.changeStatus(1, _id);\n\n\t\tls.put(msg.sender, _id);\n\t\treturn true;\n\t}\n\n\t/*\n\t * 记录url的类别\n\t */\t\n\tfunction fillCates (uint _id, bytes _url, bytes _cates) public returns(bool res) {\n\t \trequire (_id > 0 && _cates.length > 0);\n\t \t\n\t \tif(ls.getID(msg.sender) != _id){\n\t \t\treturn false;\n\t \t}\n\n\t \tbytes memory url;\n\t\taddress sender;\n\t\tuint price;\n\n\t \t(url, sender, price) = ds.getURLByID(_id);\n\t \tif(_url.bytesEquals(url)){\n\t \t\tds.setResult(_id, _cates, msg.sender);\n\t \t\tif (ds.getStatusByID(_id) == 1) {\n\t \t\t\tds.changeStatus(2,_id);\n\t \t\t}\n\t \t\t\n\t \t\tasyncSend(sender, msg.sender, price);\n\t \t}\n\n\t \treturn true;\n\t}\n\n\tfunction asyncSend(address _from, address _to, uint256 _amount) internal {\t\t\n\t\tds.subAmount(_from, _amount);\n\t    ds.addAmount(_to, _amount);\n\t}\n}\n",
  "sourcePath": "/Users/iclick/blockchain/ethereum/brandsafe/contracts/AnalysisController.sol",
  "compiler": {
    "name": "solc",
    "version": "0.4.24+commit.e67f0147.Emscripten.clang"
  },
  "schemaVersion": "2.0.0",
  "updatedAt": "2018-07-02T08:48:01.724Z"
}