{
  "contractName": "Array",
  "abi": [
    {
      "inputs": [],
      "payable": false,
      "stateMutability": "nonpayable",
      "type": "constructor"
    },
    {
      "constant": true,
      "inputs": [],
      "name": "getArray",
      "outputs": [
        {
          "name": "res",
          "type": "uint256[]"
        }
      ],
      "payable": false,
      "stateMutability": "view",
      "type": "function"
    }
  ],
  "bytecode": "0x608060405234801561001057600080fd5b50606060405190810160405280600181526020016002815260200160038152506000906003610040929190610046565b506100b8565b828054828255906000526020600020908101928215610082579160200282015b82811115610081578251825591602001919060010190610066565b5b50905061008f9190610093565b5090565b6100b591905b808211156100b1576000816000905550600101610099565b5090565b90565b610136806100c76000396000f300608060405260043610610041576000357c0100000000000000000000000000000000000000000000000000000000900463ffffffff168063d504ea1d14610046575b600080fd5b34801561005257600080fd5b5061005b6100b2565b6040518080602001828103825283818151815260200191508051906020019060200280838360005b8381101561009e578082015181840152602081019050610083565b505050509050019250505060405180910390f35b6060600080548060200260200160405190810160405280929190818152602001828054801561010057602002820191906000526020600020905b8154815260200190600101908083116100ec575b50505050509050905600a165627a7a72305820441617d4d970e0d7ed2b78fbe4f152e22f0765c2e35e0a2416fe597f9682e5670029",
  "source": "pragma solidity ^0.4.23;\n\n/**\n * The Array contract does this and that...\n */\ncontract Array {\n\tuint[] x;\n\n\tconstructor () public {\t\n\t\tx = [uint(1),2,3];\n\t}\n\n\tfunction getArray () public view returns(uint[] res) {\n\t\treturn x;\n\t}\n\n}\n",
  "sourcePath": "/Users/iclick/blockchain/ethereum/brandsafe/contracts/test/Array.sol",
  "compiler": {
    "name": "solc",
    "version": "0.4.24+commit.e67f0147.Emscripten.clang"
  },
  "schemaVersion": "2.0.0",
  "updatedAt": "2018-07-02T08:48:01.721Z"
}