{
  "contractName": "ArraysLib",
  "abi": [
    {
      "constant": true,
      "inputs": [
        {
          "name": "_collection",
          "type": "uint256[] storage"
        },
        {
          "name": "_elem",
          "type": "uint256"
        }
      ],
      "name": "indexOf",
      "outputs": [
        {
          "name": "_index",
          "type": "uint256"
        }
      ],
      "payable": false,
      "stateMutability": "view",
      "type": "function"
    },
    {
      "constant": false,
      "inputs": [
        {
          "name": "_collection",
          "type": "uint256[] storage"
        },
        {
          "name": "_id",
          "type": "uint256"
        }
      ],
      "name": "addIndex",
      "outputs": [
        {
          "name": "_res",
          "type": "bool"
        }
      ],
      "payable": false,
      "stateMutability": "nonpayable",
      "type": "function"
    },
    {
      "constant": false,
      "inputs": [
        {
          "name": "_collection",
          "type": "uint256[] storage"
        },
        {
          "name": "_id",
          "type": "uint256"
        }
      ],
      "name": "removeIndex",
      "outputs": [
        {
          "name": "_res",
          "type": "bool"
        }
      ],
      "payable": false,
      "stateMutability": "nonpayable",
      "type": "function"
    }
  ],
  "bytecode": "0x6102be610030600b82828239805160001a6073146000811461002057610022565bfe5b5030600052607381538281f300730000000000000000000000000000000000000000301460806040526004361061006e576000357c0100000000000000000000000000000000000000000000000000000000900463ffffffff16806324fef5c81461007357806325e62c93146100b1578063ceecd35c14610100575b600080fd5b61009b600480360381019080803590602001909291908035906020019092919050505061014f565b6040518082815260200191505060405180910390f35b8180156100bd57600080fd5b506100e660048036038101908080359060200190929190803590602001909291905050506101aa565b604051808215151515815260200191505060405180910390f35b81801561010c57600080fd5b5061013560048036038101908080359060200190929190803590602001909291905050506101ed565b604051808215151515815260200191505060405180910390f35b600080600084805490509150600090505b8181101561019d5783858281548110151561017757fe5b90600052602060002001541415610190578092506101a2565b8080600101915050610160565b600092505b505092915050565b6000806101b7848461014f565b90506000811415156101e257600084828154811015156101d357fe5b90600052602060002001819055505b600191505092915050565b600080600084805490509150600090505b8181101561025a576000858281548110151561021657fe5b9060005260206000200154141561024d5783858281548110151561023657fe5b90600052602060002001819055506001925061028a565b80806001019150506101fe565b84849080600181540180825580915050906001820390600052602060002001600090919290919091505550600192505b5050929150505600a165627a7a7230582026cdbc1e3130ead3af2c0df9f77743d2f828345bd797067ab74543217fa970690029",
  "source": "pragma solidity ^0.4.23;\n\n/**\n * The ArraysLib library does this and that...\n */\nlibrary ArraysLib {\n  /*\n\t * 获取元素在数组中的位置，找不到为0\n\t */\n\tfunction indexOf (uint[] storage _collection, uint _elem) public view returns(uint _index) {\n\t\tuint length = _collection.length;\n\t\tfor (uint i = 0; i < length; i++) {\n\t\t\tif(_collection[i] == _elem){\n\t\t\t\treturn i;\n\t\t\t}\n\t\t}\n\t\treturn 0;\n\t}\n\t\n\t/*\n\t * 添加id到集合中，首先利用空着的位置（值为0，id > 0）\n\t */\n\tfunction addIndex(uint[] storage _collection, uint _id) public returns(bool _res) {\n\t\tuint length = _collection.length;\n\t\tfor (uint i = 0; i < length; i++) {\n\t\t\tif(_collection[i] == 0){\n\t\t\t\t_collection[i] = _id;\n\t\t\t\treturn true;\n\t\t\t}\n\t\t}\n\n\t\t_collection.push(_id);\n\t\treturn true;\n\t}\n\t\n\t/*\n\t * 移除id, 将id对应的位置值设置为0\n\t */\n\tfunction removeIndex(uint[] storage _collection, uint _id) public returns(bool _res) {\n\t\tuint index = indexOf(_collection, _id);\n\t\tif(index != 0 ){\n\t\t\t_collection[index] = 0;\n\t\t}\n\t\treturn true;\n\t}\n}\n",
  "sourcePath": "/Users/iclick/blockchain/ethereum/brandsafe/contracts/lib/ArraysLib.sol",
  "compiler": {
    "name": "solc",
    "version": "0.4.24+commit.e67f0147.Emscripten.clang"
  },
  "schemaVersion": "2.0.0",
  "updatedAt": "2018-07-02T08:49:23.272Z"
}