{
  "contractName": "Datastore",
  "abi": [
    {
      "constant": true,
      "inputs": [
        {
          "name": "",
          "type": "address"
        }
      ],
      "name": "balances",
      "outputs": [
        {
          "name": "",
          "type": "uint256"
        }
      ],
      "payable": false,
      "stateMutability": "view",
      "type": "function"
    },
    {
      "constant": true,
      "inputs": [
        {
          "name": "analysor",
          "type": "address"
        }
      ],
      "name": "balanceOf",
      "outputs": [
        {
          "name": "payment",
          "type": "uint256"
        }
      ],
      "payable": false,
      "stateMutability": "view",
      "type": "function"
    },
    {
      "constant": false,
      "inputs": [
        {
          "name": "analysor",
          "type": "address"
        },
        {
          "name": "payment",
          "type": "uint256"
        }
      ],
      "name": "subAmount",
      "outputs": [
        {
          "name": "res",
          "type": "bool"
        }
      ],
      "payable": false,
      "stateMutability": "nonpayable",
      "type": "function"
    },
    {
      "constant": true,
      "inputs": [],
      "name": "owner",
      "outputs": [
        {
          "name": "",
          "type": "address"
        }
      ],
      "payable": false,
      "stateMutability": "view",
      "type": "function"
    },
    {
      "constant": false,
      "inputs": [
        {
          "name": "_caller",
          "type": "address"
        }
      ],
      "name": "setCaller",
      "outputs": [
        {
          "name": "res",
          "type": "bool"
        }
      ],
      "payable": false,
      "stateMutability": "nonpayable",
      "type": "function"
    },
    {
      "constant": false,
      "inputs": [
        {
          "name": "_caller",
          "type": "address"
        }
      ],
      "name": "removeCaller",
      "outputs": [
        {
          "name": "res",
          "type": "bool"
        }
      ],
      "payable": false,
      "stateMutability": "nonpayable",
      "type": "function"
    },
    {
      "constant": false,
      "inputs": [
        {
          "name": "sender",
          "type": "address"
        },
        {
          "name": "_amount",
          "type": "uint256"
        }
      ],
      "name": "addAmount",
      "outputs": [
        {
          "name": "res",
          "type": "bool"
        }
      ],
      "payable": false,
      "stateMutability": "nonpayable",
      "type": "function"
    },
    {
      "inputs": [],
      "payable": false,
      "stateMutability": "nonpayable",
      "type": "constructor"
    },
    {
      "anonymous": false,
      "inputs": [
        {
          "indexed": false,
          "name": "analysor",
          "type": "address"
        },
        {
          "indexed": false,
          "name": "_amount",
          "type": "uint256"
        }
      ],
      "name": "withdraw",
      "type": "event"
    },
    {
      "constant": false,
      "inputs": [
        {
          "name": "_url",
          "type": "bytes"
        },
        {
          "name": "_price",
          "type": "uint256"
        }
      ],
      "name": "insertURL",
      "outputs": [
        {
          "name": "_id",
          "type": "uint256"
        }
      ],
      "payable": false,
      "stateMutability": "nonpayable",
      "type": "function"
    },
    {
      "constant": false,
      "inputs": [
        {
          "name": "_id",
          "type": "uint256"
        },
        {
          "name": "_cates",
          "type": "bytes"
        },
        {
          "name": "_analysor",
          "type": "address"
        }
      ],
      "name": "setResult",
      "outputs": [
        {
          "name": "res",
          "type": "bool"
        }
      ],
      "payable": false,
      "stateMutability": "nonpayable",
      "type": "function"
    },
    {
      "constant": false,
      "inputs": [
        {
          "name": "_status",
          "type": "uint8"
        },
        {
          "name": "_id",
          "type": "uint256"
        }
      ],
      "name": "addStatusIndex",
      "outputs": [
        {
          "name": "res",
          "type": "bool"
        }
      ],
      "payable": false,
      "stateMutability": "nonpayable",
      "type": "function"
    },
    {
      "constant": true,
      "inputs": [
        {
          "name": "_status",
          "type": "uint8"
        }
      ],
      "name": "getIndexByStatus",
      "outputs": [
        {
          "name": "res",
          "type": "uint256[]"
        }
      ],
      "payable": false,
      "stateMutability": "view",
      "type": "function"
    },
    {
      "constant": false,
      "inputs": [
        {
          "name": "_status",
          "type": "uint8"
        },
        {
          "name": "_id",
          "type": "uint256"
        }
      ],
      "name": "changeStatus",
      "outputs": [
        {
          "name": "res",
          "type": "bool"
        }
      ],
      "payable": false,
      "stateMutability": "nonpayable",
      "type": "function"
    },
    {
      "constant": true,
      "inputs": [
        {
          "name": "_id",
          "type": "uint256"
        }
      ],
      "name": "getStatusByID",
      "outputs": [
        {
          "name": "_status",
          "type": "uint8"
        }
      ],
      "payable": false,
      "stateMutability": "view",
      "type": "function"
    },
    {
      "constant": true,
      "inputs": [
        {
          "name": "_id",
          "type": "uint256"
        }
      ],
      "name": "getURLByID",
      "outputs": [
        {
          "name": "_url",
          "type": "bytes"
        },
        {
          "name": "_sender",
          "type": "address"
        },
        {
          "name": "_price",
          "type": "uint256"
        }
      ],
      "payable": false,
      "stateMutability": "view",
      "type": "function"
    }
  ],
  "bytecode": "0x608060405234801561001057600080fd5b50336000806101000a81548173ffffffffffffffffffffffffffffffffffffffff021916908373ffffffffffffffffffffffffffffffffffffffff1602179055506118f5806100606000396000f3006080604052600436106100d0576000357c0100000000000000000000000000000000000000000000000000000000900463ffffffff16806327e235e3146100d55780635e9a62c31461012c5780636777f252146101735780636f7a7419146101c557806370a0823114610217578063737e83931461026e5780637b8bcbda146103195780637ff701771461039e5780638da5cb5b14610403578063a4a4d28d1461045a578063beb92f551461053a578063e7f2da8514610595578063eef21cd21461061c578063f1af92b614610677575b600080fd5b3480156100e157600080fd5b50610116600480360381019080803573ffffffffffffffffffffffffffffffffffffffff1690602001909291905050506106dc565b6040518082815260200191505060405180910390f35b34801561013857600080fd5b50610157600480360381019080803590602001909291905050506106f4565b604051808260ff1660ff16815260200191505060405180910390f35b34801561017f57600080fd5b506101ab600480360381019080803560ff16906020019092919080359060200190929190505050610769565b604051808215151515815260200191505060405180910390f35b3480156101d157600080fd5b506101fd600480360381019080803560ff169060200190929190803590602001909291905050506108b2565b604051808215151515815260200191505060405180910390f35b34801561022357600080fd5b50610258600480360381019080803573ffffffffffffffffffffffffffffffffffffffff169060200190929190505050610b45565b6040518082815260200191505060405180910390f35b34801561027a57600080fd5b506102ff60048036038101908080359060200190929190803590602001908201803590602001908080601f0160208091040260200160405190810160405280939291908181526020018383808284378201915050505050509192919290803573ffffffffffffffffffffffffffffffffffffffff169060200190929190505050610bc9565b604051808215151515815260200191505060405180910390f35b34801561032557600080fd5b50610347600480360381019080803560ff169060200190929190505050610d3a565b6040518080602001828103825283818151815260200191508051906020019060200280838360005b8381101561038a57808201518184015260208101905061036f565b505050509050019250505060405180910390f35b3480156103aa57600080fd5b506103e9600480360381019080803573ffffffffffffffffffffffffffffffffffffffff16906020019092919080359060200190929190505050610dbd565b604051808215151515815260200191505060405180910390f35b34801561040f57600080fd5b50610418610f67565b604051808273ffffffffffffffffffffffffffffffffffffffff1673ffffffffffffffffffffffffffffffffffffffff16815260200191505060405180910390f35b34801561046657600080fd5b5061048560048036038101908080359060200190929190505050610f8c565b60405180806020018473ffffffffffffffffffffffffffffffffffffffff1673ffffffffffffffffffffffffffffffffffffffff168152602001838152602001828103825285818151815260200191508051906020019080838360005b838110156104fd5780820151818401526020810190506104e2565b50505050905090810190601f16801561052a5780820380516001836020036101000a031916815260200191505b5094505050505060405180910390f35b34801561054657600080fd5b5061057b600480360381019080803573ffffffffffffffffffffffffffffffffffffffff1690602001909291905050506110e3565b604051808215151515815260200191505060405180910390f35b3480156105a157600080fd5b50610606600480360381019080803590602001908201803590602001908080601f0160208091040260200160405190810160405280939291908181526020018383808284378201915050505050509192919290803590602001909291905050506111dd565b6040518082815260200191505060405180910390f35b34801561062857600080fd5b5061065d600480360381019080803573ffffffffffffffffffffffffffffffffffffffff169060200190929190505050611451565b604051808215151515815260200191505060405180910390f35b34801561068357600080fd5b506106c2600480360381019080803573ffffffffffffffffffffffffffffffffffffffff16906020019092919080359060200190929190505050611542565b604051808215151515815260200191505060405180910390f35b60026020528060005260406000206000915090505481565b6000808211151561070457600080fd5b60006004600084815260200190815260200160002060080160009054906101000a900460ff1660ff1614151561075f576004600083815260200190815260200160002060050160009054906101000a900460ff169050610764565b600090505b919050565b60008060018060003373ffffffffffffffffffffffffffffffffffffffff1673ffffffffffffffffffffffffffffffffffffffff16815260200190815260200160002060009054906101000a900460ff1660ff161415156107c957600080fd5b60038460ff161015156107db57600080fd5b600560008560ff1660ff16815260200190815260200160002090508073__ArraysLib_____________________________63ceecd35c9091856040518363ffffffff167c0100000000000000000000000000000000000000000000000000000000028152600401808381526020018281526020019250505060206040518083038186803b15801561086b57600080fd5b505af415801561087f573d6000803e3d6000fd5b505050506040513d602081101561089557600080fd5b810190808051906020019092919050505050600191505092915050565b600080600060018060003373ffffffffffffffffffffffffffffffffffffffff1673ffffffffffffffffffffffffffffffffffffffff16815260200190815260200160002060009054906101000a900460ff1660ff1614151561091457600080fd5b60008411151561092357600080fd5b60006004600086815260200190815260200160002060080160009054906101000a900460ff1660ff16141561095b5760009250610b3d565b6004600060035481526020019081526020016000209150600560008360050160009054906101000a900460ff1660ff1660ff16815260200190815260200160002090508073__ArraysLib_____________________________6325e62c939091866040518363ffffffff167c0100000000000000000000000000000000000000000000000000000000028152600401808381526020018281526020019250505060206040518083038186803b158015610a1357600080fd5b505af4158015610a27573d6000803e3d6000fd5b505050506040513d6020811015610a3d57600080fd5b810190808051906020019092919050505050848260050160006101000a81548160ff021916908360ff160217905550600560008660ff1660ff16815260200190815260200160002090508073__ArraysLib_____________________________63ceecd35c9091866040518363ffffffff167c0100000000000000000000000000000000000000000000000000000000028152600401808381526020018281526020019250505060206040518083038186803b158015610afc57600080fd5b505af4158015610b10573d6000803e3d6000fd5b505050506040513d6020811015610b2657600080fd5b810190808051906020019092919050505050600192505b505092915050565b60008073ffffffffffffffffffffffffffffffffffffffff168273ffffffffffffffffffffffffffffffffffffffff1614151515610b8257600080fd5b600260008373ffffffffffffffffffffffffffffffffffffffff1673ffffffffffffffffffffffffffffffffffffffff168152602001908152602001600020549050919050565b60008060018060003373ffffffffffffffffffffffffffffffffffffffff1673ffffffffffffffffffffffffffffffffffffffff16815260200190815260200160002060009054906101000a900460ff1660ff16141515610c2957600080fd5b600085111515610c3857600080fd5b60008451111515610c4857600080fd5b600073ffffffffffffffffffffffffffffffffffffffff168373ffffffffffffffffffffffffffffffffffffffff1614151515610c8457600080fd5b60006004600087815260200190815260200160002060080160009054906101000a900460ff1660ff161415610cbc5760009150610d32565b600460008681526020019081526020016000209050828160020160006101000a81548173ffffffffffffffffffffffffffffffffffffffff021916908373ffffffffffffffffffffffffffffffffffffffff16021790555083816004019080519060200190610d2c929190611725565b50600191505b509392505050565b606060038260ff16101515610d4e57600080fd5b600560008360ff1660ff168152602001908152602001600020805480602002602001604051908101604052809291908181526020018280548015610db157602002820191906000526020600020905b815481526020019060010190808311610d9d575b50505050509050919050565b600060018060003373ffffffffffffffffffffffffffffffffffffffff1673ffffffffffffffffffffffffffffffffffffffff16815260200190815260200160002060009054906101000a900460ff1660ff16141515610e1c57600080fd5b600082111515610e2b57600080fd5b600260008473ffffffffffffffffffffffffffffffffffffffff1673ffffffffffffffffffffffffffffffffffffffff1681526020019081526020016000205473__SafeMathLib___________________________63b67d77c59091846040518363ffffffff167c0100000000000000000000000000000000000000000000000000000000028152600401808381526020018281526020019250505060206040518083038186803b158015610edf57600080fd5b505af4158015610ef3573d6000803e3d6000fd5b505050506040513d6020811015610f0957600080fd5b8101908080519060200190929190505050600260008573ffffffffffffffffffffffffffffffffffffffff1673ffffffffffffffffffffffffffffffffffffffff168152602001908152602001600020819055506001905092915050565b6000809054906101000a900473ffffffffffffffffffffffffffffffffffffffff1681565b606060008060008085111515610fa157600080fd5b60006004600087815260200190815260200160002060080160009054906101000a900460ff1660ff161415156110bb57600460008681526020019081526020016000209050806003018160000160009054906101000a900473ffffffffffffffffffffffffffffffffffffffff168260010154828054600181600116156101000203166002900480601f0160208091040260200160405190810160405280929190818152602001828054600181600116156101000203166002900480156110a95780601f1061107e576101008083540402835291602001916110a9565b820191906000526020600020905b81548152906001019060200180831161108c57829003601f168201915b505050505092509350935093506110db565b600080602060405190810160405280600081525091908090509350935093505b509193909250565b60008060009054906101000a900473ffffffffffffffffffffffffffffffffffffffff1673ffffffffffffffffffffffffffffffffffffffff163373ffffffffffffffffffffffffffffffffffffffff1614151561114057600080fd5b600073ffffffffffffffffffffffffffffffffffffffff168273ffffffffffffffffffffffffffffffffffffffff161415151561117c57600080fd5b60018060008473ffffffffffffffffffffffffffffffffffffffff1673ffffffffffffffffffffffffffffffffffffffff16815260200190815260200160002060006101000a81548160ff021916908360ff16021790555060019050919050565b60006111e76117a5565b60018060003373ffffffffffffffffffffffffffffffffffffffff1673ffffffffffffffffffffffffffffffffffffffff16815260200190815260200160002060009054906101000a900460ff1660ff1614151561124457600080fd5b600084511180156112555750600083115b151561126057600080fd5b610120604051908101604052803373ffffffffffffffffffffffffffffffffffffffff168152602001848152602001600073ffffffffffffffffffffffffffffffffffffffff16815260200185815260200160206040519081016040528060008152508152602001600060ff16815260200160008152602001428152602001600160ff16815250905060036000815480929190600101919050559150806004600084815260200190815260200160002060008201518160000160006101000a81548173ffffffffffffffffffffffffffffffffffffffff021916908373ffffffffffffffffffffffffffffffffffffffff1602179055506020820151816001015560408201518160020160006101000a81548173ffffffffffffffffffffffffffffffffffffffff021916908373ffffffffffffffffffffffffffffffffffffffff16021790555060608201518160030190805190602001906113c4929190611824565b5060808201518160040190805190602001906113e1929190611824565b5060a08201518160050160006101000a81548160ff021916908360ff16021790555060c0820151816006015560e082015181600701556101008201518160080160006101000a81548160ff021916908360ff1602179055509050506114496000600354610769565b505092915050565b60008060009054906101000a900473ffffffffffffffffffffffffffffffffffffffff1673ffffffffffffffffffffffffffffffffffffffff163373ffffffffffffffffffffffffffffffffffffffff161415156114ae57600080fd5b600073ffffffffffffffffffffffffffffffffffffffff168273ffffffffffffffffffffffffffffffffffffffff16141515156114ea57600080fd5b600160008373ffffffffffffffffffffffffffffffffffffffff1673ffffffffffffffffffffffffffffffffffffffff16815260200190815260200160002060006101000a81549060ff021916905560019050919050565b600060018060003373ffffffffffffffffffffffffffffffffffffffff1673ffffffffffffffffffffffffffffffffffffffff16815260200190815260200160002060009054906101000a900460ff1660ff161415156115a157600080fd5b600073ffffffffffffffffffffffffffffffffffffffff168373ffffffffffffffffffffffffffffffffffffffff16141580156115de5750600082115b15156115e957600080fd5b600260008473ffffffffffffffffffffffffffffffffffffffff1673ffffffffffffffffffffffffffffffffffffffff1681526020019081526020016000205473__SafeMathLib___________________________63771602f79091846040518363ffffffff167c0100000000000000000000000000000000000000000000000000000000028152600401808381526020018281526020019250505060206040518083038186803b15801561169d57600080fd5b505af41580156116b1573d6000803e3d6000fd5b505050506040513d60208110156116c757600080fd5b8101908080519060200190929190505050600260008573ffffffffffffffffffffffffffffffffffffffff1673ffffffffffffffffffffffffffffffffffffffff168152602001908152602001600020819055506001905092915050565b828054600181600116156101000203166002900490600052602060002090601f016020900481019282601f1061176657805160ff1916838001178555611794565b82800160010185558215611794579182015b82811115611793578251825591602001919060010190611778565b5b5090506117a191906118a4565b5090565b61012060405190810160405280600073ffffffffffffffffffffffffffffffffffffffff16815260200160008152602001600073ffffffffffffffffffffffffffffffffffffffff1681526020016060815260200160608152602001600060ff1681526020016000815260200160008152602001600060ff1681525090565b828054600181600116156101000203166002900490600052602060002090601f016020900481019282601f1061186557805160ff1916838001178555611893565b82800160010185558215611893579182015b82811115611892578251825591602001919060010190611877565b5b5090506118a091906118a4565b5090565b6118c691905b808211156118c25760008160009055506001016118aa565b5090565b905600a165627a7a72305820626e7ffb54dd59d1ffb27b3355ccdb1b8239ae23855900fc4cb698f4a8ff59e60029",
  "source": "pragma solidity ^0.4.23;\n\nimport \"carbon-ico/contracts/Ownable.sol\";\n\nimport \"./lib/MapLib.sol\";\nimport \"./lib/ArraysLib.sol\";\nimport \"./lib/StringLib.sol\";\n\n\nimport \"./Finance.sol\";\n\n\n\n\n/**\n * The Datastore contract does this and that...\n */\ncontract Datastore is Finance {\n\tusing SafeMathLib for uint256;\n\tusing StringLib for bytes;\n\tusing ArraysLib for uint[];\n\n\tstruct URL {\n\t\taddress sender;\n\t\tuint256 price;\n\t\taddress analysor;\n\t\tbytes url;\n\t\tbytes cates;\n\t\tuint8 status; // 0 new, 1 in progress, 2 complete\n\t\tuint gas;\n\t\tuint timestamp;\n\t\tuint8 exist;\n\t}\n\t\n\tuint id;\n\t\n\tmapping (uint => URL) urls;\n\t\n\tmapping (uint8 => uint[]) statusIndex;\n\n\t/*\n\t//用于按日期组织内容，以方便清理旧的数据，留作扩展\n\tmapping (bytes => uint[]) dateIndex;\n\n\t//用于按发送url的地址建立索引，方便其查询自己的数据，留作扩展\n\tmapping (address => uint[]) senderIndex;\n\t\n\t//用于按分析url的地址建立索引，方便期查询记录，留作扩展\n\tmapping (address => uint[]) analysorIndex;\n\t*/\n\t\n\tconstructor() public {\n\t\t\n\t}\n\t\n\tfunction insertURL (bytes _url,uint256 _price) public onlyLicensee returns(uint _id) {\n\t\trequire (_url.length > 0 && _price > 0);\n\n\t\tURL memory url = URL({\n\t\t\tsender : msg.sender,\n\t\t\turl : _url,\n\t\t\tprice : _price,\n\t\t\tstatus : 0,\n\t\t\ttimestamp : now,\n\t\t\tanalysor : address(0),\n\t\t\tcates : '',\n\t\t\tgas : 0,\n\t\t\texist : 1\n\t\t});\n\n\t\t_id = id++;\n\t\turls[_id] = url;\n\n\t\taddStatusIndex(0, id);\n\n\t\treturn;\n\t}\n\n\tfunction setResult (uint _id, bytes _cates, address _analysor) public onlyLicensee returns(bool res) {\t\t\n\t\trequire (_id > 0);\n\t\trequire (_cates.length > 0);\t\n\t\trequire (_analysor != address(0));\n\t\t\n\t\tif(urls[_id].exist == 0){\n\t\t\treturn false;\n\t\t}\n\n\t\tURL storage u = urls[_id];\n\t\tu.analysor = _analysor;\n\t\tu.cates = _cates;\n\n\t\treturn true;\n\t}\n\t\t\t\n\n\tfunction addStatusIndex (uint8 _status, uint _id) public onlyLicensee returns(bool res) {\n\t\trequire (_status < 3);\n\t\t\n\t\tuint[] storage ids = statusIndex[_status];\n\t\tids.addIndex(_id);\n\t\treturn true;\n\t}\n\n\n\tfunction getIndexByStatus(uint8 _status) public view returns(uint[] res) {\n\t\trequire (_status < 3);\n\n\t\treturn statusIndex[_status];\n\t}\n\n\tfunction changeStatus(uint8 _status, uint _id) public onlyLicensee returns(bool res) {\n\t\trequire (_id > 0);\n\t\t\n\t\tif(urls[_id].exist == 0){\n\t\t\treturn false;\n\t\t}\n\n\t\tURL storage u = urls[id];\n\t\tuint[] storage ids = statusIndex[u.status];\n\t\tids.removeIndex(_id);\n\n\t\tu.status = _status;\n\t\tids = statusIndex[_status];\n\t\tids.addIndex(_id);\n\t\treturn true;\n\t}\n\t\n\t\n\tfunction getStatusByID (uint _id) public view returns(uint8 _status) {\n\t\trequire (_id > 0);\n\t\t\n\t\tif(urls[_id].exist != 0){\n\t\t\treturn urls[_id].status;\n\t\t}\n\n\t\treturn 0;\n\t}\n\t\n\tfunction getURLByID (uint _id) public view returns(bytes _url, address _sender, uint256 _price )  {\n\t\trequire (_id > 0);\n\t\t\n\t\tif(urls[_id].exist != 0){\n\t\t\tURL storage u = urls[_id];\n\t\t\treturn (u.url, u.sender, u.price);\n\t\t}\n\t\t\n\t\treturn (\"\", address(0), 0);\n\t}\n\t\t\t\t\t\t\t\n}\n",
  "sourcePath": "/Users/iclick/blockchain/ethereum/brandsafe/contracts/Datastore.sol",
  "compiler": {
    "name": "solc",
    "version": "0.4.24+commit.e67f0147.Emscripten.clang"
  },
  "schemaVersion": "2.0.0",
  "updatedAt": "2018-07-02T08:49:23.263Z"
}