{
  "contractName": "DemandController",
  "abi": [
    {
      "constant": true,
      "inputs": [],
      "name": "owner",
      "outputs": [
        {
          "name": "",
          "type": "address"
        }
      ],
      "payable": false,
      "stateMutability": "view",
      "type": "function"
    },
    {
      "inputs": [
        {
          "name": "datastore",
          "type": "address"
        }
      ],
      "payable": false,
      "stateMutability": "nonpayable",
      "type": "constructor"
    },
    {
      "constant": false,
      "inputs": [
        {
          "name": "_url",
          "type": "bytes"
        },
        {
          "name": "_price",
          "type": "uint256"
        }
      ],
      "name": "addURL",
      "outputs": [
        {
          "name": "res",
          "type": "bool"
        }
      ],
      "payable": false,
      "stateMutability": "nonpayable",
      "type": "function"
    }
  ],
  "bytecode": "0x608060405234801561001057600080fd5b5060405160208061038e83398101806040528101908080519060200190929190505050336000806101000a81548173ffffffffffffffffffffffffffffffffffffffff021916908373ffffffffffffffffffffffffffffffffffffffff16021790555080600160006101000a81548173ffffffffffffffffffffffffffffffffffffffff021916908373ffffffffffffffffffffffffffffffffffffffff160217905550506102ca806100c46000396000f30060806040526004361061004c576000357c0100000000000000000000000000000000000000000000000000000000900463ffffffff1680636d9f251d146100515780638da5cb5b146100dc575b600080fd5b34801561005d57600080fd5b506100c2600480360381019080803590602001908201803590602001908080601f016020809104026020016040519081016040528093929190818152602001838380828437820191505050505050919291929080359060200190929190505050610133565b604051808215151515815260200191505060405180910390f35b3480156100e857600080fd5b506100f1610279565b604051808273ffffffffffffffffffffffffffffffffffffffff1673ffffffffffffffffffffffffffffffffffffffff16815260200191505060405180910390f35b6000600160009054906101000a900473ffffffffffffffffffffffffffffffffffffffff1673ffffffffffffffffffffffffffffffffffffffff1663e7f2da8584846040518363ffffffff167c01000000000000000000000000000000000000000000000000000000000281526004018080602001838152602001828103825284818151815260200191508051906020019080838360005b838110156101e65780820151818401526020810190506101cb565b50505050905090810190601f1680156102135780820380516001836020036101000a031916815260200191505b509350505050602060405180830381600087803b15801561023357600080fd5b505af1158015610247573d6000803e3d6000fd5b505050506040513d602081101561025d57600080fd5b8101908080519060200190929190505050506001905092915050565b6000809054906101000a900473ffffffffffffffffffffffffffffffffffffffff16815600a165627a7a72305820357609b55720dc48f8546cacc203ac026e26bd04f42ec581975d1b1d34fee7090029",
  "source": "pragma solidity ^0.4.23;\n\nimport \"carbon-ico/contracts/Ownable.sol\";\n\nimport \"./Datastore.sol\";\n/**\n * The DemandController contract does this and that...\n */\ncontract DemandController is Ownable{\n\tDatastore ds;\n\n\tconstructor(address datastore) public {\n\t\tds = Datastore(datastore);\n\t}\n\n\t/*\n\t * 添加新的url\n\t */\n\tfunction addURL(bytes _url, uint _price) public returns(bool res) {\t\t\n\t\tds.insertURL(_url, _price);\n\n\t\treturn true;\n\t}\n\n}\n",
  "sourcePath": "/Users/iclick/blockchain/ethereum/brandsafe/contracts/DemandController.sol",
  "compiler": {
    "name": "solc",
    "version": "0.4.24+commit.e67f0147.Emscripten.clang"
  },
  "schemaVersion": "2.0.0",
  "updatedAt": "2018-07-02T08:49:23.255Z"
}