{
  "contractName": "MapLib",
  "abi": [
    {
      "constant": false,
      "inputs": [
        {
          "name": "self",
          "type": "MapLib.LockMap storage"
        },
        {
          "name": "_key",
          "type": "address"
        },
        {
          "name": "_id",
          "type": "uint256"
        }
      ],
      "name": "put",
      "outputs": [
        {
          "name": "res",
          "type": "bool"
        }
      ],
      "payable": false,
      "stateMutability": "nonpayable",
      "type": "function"
    },
    {
      "constant": false,
      "inputs": [
        {
          "name": "self",
          "type": "MapLib.LockMap storage"
        },
        {
          "name": "_key",
          "type": "address"
        }
      ],
      "name": "remove",
      "outputs": [
        {
          "name": "res",
          "type": "bool"
        }
      ],
      "payable": false,
      "stateMutability": "nonpayable",
      "type": "function"
    },
    {
      "constant": true,
      "inputs": [
        {
          "name": "self",
          "type": "MapLib.LockMap storage"
        },
        {
          "name": "_key",
          "type": "address"
        }
      ],
      "name": "contains",
      "outputs": [
        {
          "name": "res",
          "type": "bool"
        }
      ],
      "payable": false,
      "stateMutability": "view",
      "type": "function"
    },
    {
      "constant": true,
      "inputs": [
        {
          "name": "self",
          "type": "MapLib.LockMap storage"
        }
      ],
      "name": "size",
      "outputs": [
        {
          "name": "res",
          "type": "uint256"
        }
      ],
      "payable": false,
      "stateMutability": "view",
      "type": "function"
    },
    {
      "constant": true,
      "inputs": [
        {
          "name": "self",
          "type": "MapLib.LockMap storage"
        }
      ],
      "name": "iterateStart",
      "outputs": [
        {
          "name": "index",
          "type": "uint256"
        }
      ],
      "payable": false,
      "stateMutability": "view",
      "type": "function"
    },
    {
      "constant": true,
      "inputs": [
        {
          "name": "self",
          "type": "MapLib.LockMap storage"
        },
        {
          "name": "keyIndex",
          "type": "uint256"
        }
      ],
      "name": "iterateNext",
      "outputs": [
        {
          "name": "index",
          "type": "uint256"
        }
      ],
      "payable": false,
      "stateMutability": "view",
      "type": "function"
    },
    {
      "constant": true,
      "inputs": [
        {
          "name": "self",
          "type": "MapLib.LockMap storage"
        },
        {
          "name": "keyIndex",
          "type": "uint256"
        }
      ],
      "name": "iterateGet",
      "outputs": [
        {
          "name": "key",
          "type": "address"
        },
        {
          "name": "id",
          "type": "uint256"
        },
        {
          "name": "timestamp",
          "type": "uint256"
        }
      ],
      "payable": false,
      "stateMutability": "view",
      "type": "function"
    }
  ],
  "bytecode": "0x610853610030600b82828239805160001a6073146000811461002057610022565bfe5b5030600052607381538281f300730000000000000000000000000000000000000000301460806040526004361061009a576000357c0100000000000000000000000000000000000000000000000000000000900463ffffffff16806359e66b0d1461009f57806371fecd2714610117578063c01c1abc14610186578063c04111d7146101ba578063d0e757c8146101ee578063d7082c5e1461022c578063f26138e814610284575b600080fd5b6100c760048036038101908080359060200190929190803590602001909291905050506102e9565b604051808473ffffffffffffffffffffffffffffffffffffffff1673ffffffffffffffffffffffffffffffffffffffff168152602001838152602001828152602001935050505060405180910390f35b81801561012357600080fd5b5061016c60048036038101908080359060200190929190803573ffffffffffffffffffffffffffffffffffffffff169060200190929190803590602001909291905050506103b6565b604051808215151515815260200191505060405180910390f35b6101a460048036038101908080359060200190929190505050610597565b6040518082815260200191505060405180910390f35b6101d8600480360381019080803590602001909291905050506105ab565b6040518082815260200191505060405180910390f35b61021660048036038101908080359060200190929190803590602001909291905050506105b9565b6040518082815260200191505060405180910390f35b61026a60048036038101908080359060200190929190803573ffffffffffffffffffffffffffffffffffffffff169060200190929190505050610636565b604051808215151515815260200191505060405180910390f35b81801561029057600080fd5b506102cf60048036038101908080359060200190929190803573ffffffffffffffffffffffffffffffffffffffff169060200190929190505050610687565b604051808215151515815260200191505060405180910390f35b6000806000808560010180549050851015156103155760008060008191508090509350935093506103ae565b856001018581548110151561032657fe5b9060005260206000200160000160009054906101000a900473ffffffffffffffffffffffffffffffffffffffff1693508560000160008573ffffffffffffffffffffffffffffffffffffffff1673ffffffffffffffffffffffffffffffffffffffff168152602001908152602001600020600101905083816000015482600101549350935093505b509250925092565b600080600073ffffffffffffffffffffffffffffffffffffffff168473ffffffffffffffffffffffffffffffffffffffff16141515156103f557600080fd5b6040805190810160405280848152602001428152508560000160008673ffffffffffffffffffffffffffffffffffffffff1673ffffffffffffffffffffffffffffffffffffffff16815260200190815260200160002060010160008201518160000155602082015181600101559050508460000160008573ffffffffffffffffffffffffffffffffffffffff1673ffffffffffffffffffffffffffffffffffffffff168152602001908152602001600020600001549050600081141561058b578460010180548091906001016104cb91906107a1565b9050600181018560000160008673ffffffffffffffffffffffffffffffffffffffff1673ffffffffffffffffffffffffffffffffffffffff1681526020019081526020016000206000018190555083856001018281548110151561052b57fe5b9060005260206000200160000160006101000a81548173ffffffffffffffffffffffffffffffffffffffff021916908373ffffffffffffffffffffffffffffffffffffffff16021790555084600201600081548092919060010191905055505b60019150509392505050565b60006105a48260006105b9565b9050919050565b600081600201549050919050565b6000818060010192505082600101805490508211156105db5760009050610630565b5b82600101805490508210801561061a575082600101828154811015156105fe57fe5b9060005260206000200160000160149054906101000a900460ff165b1561062c5781806001019250506105dc565b8190505b92915050565b6000808360000160008473ffffffffffffffffffffffffffffffffffffffff1673ffffffffffffffffffffffffffffffffffffffff1681526020019081526020016000206000015411905092915050565b6000808360000160008473ffffffffffffffffffffffffffffffffffffffff1673ffffffffffffffffffffffffffffffffffffffff16815260200190815260200160002060000154905060008114156106e3576000915061079a565b8360000160008473ffffffffffffffffffffffffffffffffffffffff1673ffffffffffffffffffffffffffffffffffffffff168152602001908152602001600020600080820160009055600182016000808201600090556001820160009055505050506001846001016001830381548110151561075c57fe5b9060005260206000200160000160146101000a81548160ff021916908315150217905550836002016000815480929190600190039190505550600191505b5092915050565b8154818355818111156107c8578183600052602060002091820191016107c791906107cd565b5b505050565b61082491905b8082111561082057600080820160006101000a81549073ffffffffffffffffffffffffffffffffffffffff02191690556000820160146101000a81549060ff0219169055506001016107d3565b5090565b905600a165627a7a72305820033b8b1e577b6e599a317b6f598f01e0c56911361e1f5198960aa6b3573851af0029",
  "source": "pragma solidity ^0.4.23;\n\n/**\n * The MapLib library does this and that...\n */\nlibrary MapLib {\n  \n\tstruct LockMap {\n\t\tmapping (address => IndexValue) data;\t\t\n\t\tkeyFlag[] keys;\n\t\tuint size;\n\t}\n\t\n\tstruct IndexValue {\n\t\tuint keyIndex;\n\t\tLockTime value;\n\t}\n\t\n\tstruct keyFlag {\n\t\taddress analysor;\n\t\tbool deleted;\n\t}\t\n\n\tstruct LockTime {\n\t\tuint id;\n\t\tuint timestamp;\n\t}\n\t\n\tfunction put(LockMap storage self, address _key, uint _id) public returns(bool res) {\n\n\t\trequire (_key !=  address(0));\n\t\t\n\t\tself.data[_key].value = LockTime(_id,now);\n\t\tuint keyIndex = self.data[_key].keyIndex;\n\n\t\tif( keyIndex == 0){\n\t\t\tkeyIndex = self.keys.length ++;\n\t    \tself.data[_key].keyIndex = keyIndex + 1;\n\t    \tself.keys[keyIndex].analysor = _key;\n\t    \tself.size++;\n\t\t}\n\n\t\treturn true;\n\t}\n\n\tfunction get (LockMap storage self, address _key) internal view returns(uint id) {\n\t\tif (contains(self, _key)){\n\t\t\treturn self.data[_key].value.id;\n\t\t}\n\t\treturn 0;\n\t}\n\t\n\n\tfunction remove (LockMap storage self, address _key) public returns(bool res) {\n\t\tuint keyIndex = self.data[_key].keyIndex;\n\t    if (keyIndex == 0)\n\t    \treturn false;\n\n\t    delete self.data[_key];\n\t    self.keys[keyIndex - 1].deleted = true;\n\t    self.size--;\n\n\t    return true;\n\t}\n\t\n\t\n\tfunction contains (LockMap storage self, address _key) public view returns(bool res) {\n\t\treturn self.data[_key].keyIndex > 0;\n\t}\n\n\tfunction size (LockMap storage self) public view returns(uint res) {\n\t\treturn self.size;\n\t}\n\t\n\tfunction iterateStart(LockMap storage self) public view returns(uint index) {\n\t\treturn iterateNext(self, 0);\n\t}\n\t\n\n\tfunction iterateNext (LockMap storage self, uint keyIndex) public view returns(uint index) {\n\t\tkeyIndex++;\n\n\t\tif(keyIndex > self.keys.length){\n\t    \treturn 0;\n\t    }\n\n\t    while (keyIndex < self.keys.length && self.keys[keyIndex].deleted){\n\t      keyIndex++;\n\t    }\n\n\t    return keyIndex;\n\t}\n\n\tfunction iterateGet (LockMap storage self, uint keyIndex) public view returns(address key, uint id, uint timestamp)  {\n\t\tif(keyIndex >= self.keys.length){\n\t\t\treturn (address(0),0,0);\n\t    }\n\n\t    key = self.keys[keyIndex].analysor;\n\t    LockTime storage value = self.data[key].value;\n\n\t    return (key, value.id, value.timestamp);\n\t}\n}\n",
  "sourcePath": "/Users/iclick/blockchain/ethereum/brandsafe/contracts/lib/MapLib.sol",
  "compiler": {
    "name": "solc",
    "version": "0.4.24+commit.e67f0147.Emscripten.clang"
  },
  "schemaVersion": "2.0.0",
  "updatedAt": "2018-07-02T08:49:23.276Z"
}