{
  "contractName": "StringLib",
  "abi": [
    {
      "constant": true,
      "inputs": [
        {
          "name": "a",
          "type": "bytes"
        },
        {
          "name": "b",
          "type": "bytes"
        }
      ],
      "name": "bytesEquals",
      "outputs": [
        {
          "name": "res",
          "type": "bool"
        }
      ],
      "payable": false,
      "stateMutability": "pure",
      "type": "function"
    }
  ],
  "bytecode": "0x610286610030600b82828239805160001a6073146000811461002057610022565bfe5b5030600052607381538281f3007300000000000000000000000000000000000000003014608060405260043610610058576000357c0100000000000000000000000000000000000000000000000000000000900463ffffffff1680637da483171461005d575b600080fd5b6100fd600480360381019080803590602001908201803590602001908080601f0160208091040260200160405190810160405280939291908181526020018383808284378201915050505050509192919290803590602001908201803590602001908080601f0160208091040260200160405190810160405280939291908181526020018383808284378201915050505050509192919290505050610117565b604051808215151515815260200191505060405180910390f35b60008082518451141561012d5760009150610253565b600090505b835181101561024e57828181518110151561014957fe5b9060200101517f010000000000000000000000000000000000000000000000000000000000000090047f0100000000000000000000000000000000000000000000000000000000000000027effffffffffffffffffffffffffffffffffffffffffffffffffffffffffffff191684828151811015156101c457fe5b9060200101517f010000000000000000000000000000000000000000000000000000000000000090047f0100000000000000000000000000000000000000000000000000000000000000027effffffffffffffffffffffffffffffffffffffffffffffffffffffffffffff19161415156102415760009150610253565b8080600101915050610132565b600191505b50929150505600a165627a7a72305820852aaf5222958e84042b563e9f142019995d0f24ca44585676bd686ffdacc9d90029",
  "source": "pragma solidity ^0.4.23;\n\n/**\n * The StringLib library does this and that...\n */\nlibrary StringLib {\n  \n\tfunction bytesEquals (bytes a, bytes b) public pure returns(bool res) {\n\t\tif( a.length == b.length){\n\t\t\treturn false;\n\t\t}\n\n\t\tfor(uint i=0; i < a.length; i++){\n\t\t\tif(a[i] != b[i]){\n\t\t\t\treturn false;\n\t\t\t}\n\t\t}\n\t\treturn true;\n\t}\n}\n",
  "sourcePath": "/Users/iclick/blockchain/ethereum/brandsafe/contracts/lib/StringLib.sol",
  "compiler": {
    "name": "solc",
    "version": "0.4.24+commit.e67f0147.Emscripten.clang"
  },
  "schemaVersion": "2.0.0",
  "updatedAt": "2018-07-02T08:49:23.274Z"
}